:100000000C9458000C9480000C9480000C94800098
:100010000C9480000C9480000C9480000C94800060
:100020000C9480000C9480000C9480000C94800050
:100030000C9480000C9480000C9480000C94800040
:100040000C94B0040C9480000C9480000C948000FC
:100050000C9480000C9480000C9480000C94800020
:100060000C94FA040C948000000000002500280085
:100070002B00040404040404040402020202020229
:10008000030303030303010204081020408001025C
:1000900004081020010204081020000000080002DB
:1000A0000100000304070000000000000000190622
:1000B00011241FBECFEFD8E0DEBFCDBF11E0A0E01E
:1000C000B1E0E0EDF8E102C005900D92A237B10772
:1000D000D9F722E0A2E7B1E001C01D92A834B2072F
:1000E000E1F710E0C8E5D0E004C02197FE010E94CE
:1000F000EC07C735D107C9F70E9435060C94660C8A
:100100000C9400008091C3019091C401891B990B4C
:10011000089590E0FC01E656FF4F2491FC01EA5758
:10012000FF4F3491FC01EE58FF4FE491EE23C9F0EC
:10013000222339F0233001F1A8F4213019F12230C3
:1001400029F1F0E0EE0FFF1FE859FF4FA591B491A0
:100150008FB7F894EC91611126C030953E233C9303
:100160008FBF08952730A9F02830C9F0243049F70F
:10017000809180008F7D03C0809180008F77809375
:100180008000DFCF84B58F7784BDDBCF84B58F7DD2
:10019000FBCF8091B0008F778093B000D2CF809159
:1001A000B0008F7DF9CF3E2BDACF3FB7F894809126
:1001B000BF019091C001A091C101B091C20126B5CB
:1001C000A89B05C02F3F19F00196A11DB11D3FBF8F
:1001D000BA2FA92F982F8827BC01CD01620F711D5E
:1001E000811D911D42E0660F771F881F991F4A9558
:1001F000D1F7089520919501260F3327331F21321F
:100200003105ECF420910B02FC0190E080E02430F9
:1002100069F082E00895A09195012191AC014D58BB
:100220005E4FA40FB52FB11D2C930196861798F33E
:1002300080919501680F6093950180E0089581E0B9
:10024000089510920B0281E080930A021092E5015A
:1002500061E082E10E94890061E083E10E948900FF
:10026000E9EBF0E080818E7F808380818D7F8083C9
:1002700088E48093B80085E48093BC000895CF9310
:10028000DF9391E0909372018823B9F0C091B80098
:10029000D091BA008091BC008A7B8093BC0060E062
:1002A00082E10E94890060E083E10E9489000E944F
:1002B0002101D093BA00C093B800DF91CF91089587
:1002C0008F929F92AF92BF92CF92DF92EF92FF9266
:1002D0000F931F93CF93DF93D0913402D13208F064
:1002E000D7C0182FC09133020E94D5006B017C014A
:1002F00080910B0281116BC082E080930B021093FE
:100300000A028FEF8093090210920802D09307022D
:10031000A3E1B2E0E7EEF1E080E0D81391C01092E3
:10032000E6018091E601CC0FC82BC093E6018091D5
:10033000E501813009F088C01092E5010E94D500E6
:100340006B017C018091E6018093BB0080910D02DE
:1003500090910E02A0910F02B0911002892B8A2B6E
:100360008B2BA1F00E94D50000910D0210910E027E
:1003700020910F02309110026C197D098E099F099E
:10038000061717072807390708F442C08091BC00F8
:1003900083FDD8CF85EC8093BC000E94D5006B0113
:1003A0007C0180910B02823009F450C080910902D7
:1003B0008F3F09F46FC080910902803209F46CC04C
:1003C00080910902803309F469C084E026C08091DD
:1003D0000D0290910E02A0910F02B0911002892B94
:1003E0008A2B8B2B09F484CF0E94D50080900D02BC
:1003F00090900E02A0900F02B09010026C197D092F
:100400008E099F0986169706A806B90608F070CFD0
:1004100080910C020E943F0185E01092120210921E
:10042000340210921102DF91CF911F910F91FF9032
:10043000EF90DF90CF90BF90AF909F908F900895F6
:100440009D9191938F5F69CF85EEA5CF80910D022D
:1004500090910E02A0910F02B0911002892B8A2B6D
:100460008B2B09F49ECF0E94D50000910D021091B4
:100470000E0220910F02309110026C197D098E0935
:100480009F09061717072807390708F08ACFC0CF3A
:1004900081E0C3CF80E0C1CF82E0BFCF83E0BDCF9A
:1004A0008F929F92AF92BF92CF92DF92EF92FF9284
:1004B0000F931F93CF93DF93D82FC62F142F613242
:1004C00008F09CC00E94D5006B017C0180910B025A
:1004D00081116FC081E080930B0210930A029FEF9D
:1004E00090930902109208029C0F90930702809348
:1004F000E6018091E601DD0FD82BD093E6018091D3
:10050000E501813009F07CC01092E5010E94D50020
:100510006B017C018091E6018093BB0080910D020C
:1005200090910E02A0910F02B0911002892B8A2B9C
:100530008B2BA1F00E94D50000910D0210910E02AC
:1005400020910F02309110026C197D098E099F09CC
:10055000061717072807390708F44CC08091BC001C
:1005600083FDD8CF85EC8093BC000E94D5006B0141
:100570007C0180910B02813009F444C08091080213
:100580008C1710F4C0910802E7EEF1E0A5ECB1E0A1
:1005900080E08C1359C08C2FDF91CF911F910F9168
:1005A000FF90EF90DF90CF90BF90AF909F908F9093
:1005B000089580910D0290910E02A0910F02B091CA
:1005C0001002892B8A2B8B2B09F480CF0E94D50037
:1005D00080900D0290900E02A0900F02B090100239
:1005E0006C197D098E099F0986169706A806B9061B
:1005F00008F06CCF80910C020E943F01C0E0CBCF8D
:1006000085EEB1CF80910D0290910E02A0910F0264
:10061000B0911002892B8A2B8B2B09F4AACF0E9450
:10062000D50000910D0210910E0220910F02309121
:1006300010026C197D098E099F09061717072807F4
:10064000390708F096CFD6CF91919D938F5FA1CFB8
:10065000089508950895E091C4018091C301E817B9
:1006600030F4F0E0EB53FE4F808190E008958FEF7F
:100670009FEF08959091C4018091C3012FEF3FEF48
:10068000981748F4E92FF0E0EB53FE4F208130E05B
:100690009F5F9093C401C9010895CF92DF92EF92BA
:1006A000FF920F931F93CF93DF937C01CB018A01BD
:1006B00020911102222389F0EB016B01C40ED51E9B
:1006C000CC15DD0569F06991D701ED91FC910190A0
:1006D000F081E02DC7010995F3CF642F0E94FA0045
:1006E000C801DF91CF911F910F91FF90EF90DF90A4
:1006F000CF900895CF93DF931F92CDB7DEB7698374
:10070000209111022223F9F020913402203258F076
:1007100021E030E0FC013383228390E080E00F9001
:10072000DF91CF91089580911202E82FF0E0ED5E05
:10073000FD4F998190838F5F8093120280933402E2
:1007400081E090E0ECCF61E0CE0101960E94FA00DA
:10075000F7CF682F85E392E00C947A0390E080E075
:10076000089541E061E0809141020E9450021092A0
:10077000C4018093C301813029F485E392E00E9493
:100780003A0308958FEF08959BB19F70282F207F23
:10079000922B9BB95A985B9A4AE04A95F1F700C0B0
:1007A0005B98EFE1F3E03197F1F700C000009BB1F7
:1007B0009F70F0E18F9F90011124892F822B8BB9BC
:1007C0005B9A4AE04A95F1F700C05B988FE39FE19E
:1007D0000197F1F700C00000089581E00E94C40372
:1007E0008FE39FE10197F1F700C0000080E80C94CF
:1007F000C403FC012191222341F19BB19F70822F00
:10080000807F982B9BB95A9A5B9A85E08A95F1F77D
:1008100000005B988FE193E00197F1F700C00000C2
:100820009BB19F7080E1289F90011124922B9BB96E
:100830005B9A95E09A95F1F700005B988FE39FE152
:100840000197F1F700C00000D5CF0895CF93DF9353
:100850008091410291E090931102809333021092B3
:100860001202109234028CEA90E00E94A90383E302
:1008700090E00E94A90390E080E00E94A90381E03B
:100880000E946001811132C00E94B1038093420234
:100890008F3F61F183FF2AC087FF09C02FEF87EEEA
:1008A00093E0215080409040E1F700C0000041E01B
:1008B00066E0809141020E9450021092C401809330
:1008C000C301C2E4D2E0863031F08FEF8093420260
:1008D000DF91CF91089585E392E00E943A038993D6
:1008E00022E0C834D207B9F781E0F2CF8FEFF0CF22
:1008F00085ED8093BC0080910D0290910E02A09135
:100900000F02B09110020796A11DB11D23E0B6950C
:10091000A795979587952A95D1F72091BC0024FD3E
:1009200003C010920B02089540910D0250910E02E7
:1009300060910F0270911002452B462B472B69F3F3
:100940000097A105B10541F025E32A95F1F70000D4
:100950000197A109B109E1CF80910C020C943F01EC
:100960001F920F920FB60F9211242F933F938F93E4
:100970009F93AF93BF938091BB019091BC01A091D5
:10098000BD01B091BE013091BA0123E0230F2D3794
:1009900058F50196A11DB11D2093BA018093BB01AA
:1009A0009093BC01A093BD01B093BE018091BF01A3
:1009B0009091C001A091C101B091C2010196A11D09
:1009C000B11D8093BF019093C001A093C101B0936A
:1009D000C201BF91AF919F918F913F912F910F9045
:1009E0000FBE0F901F90189526E8230F0296A11DA9
:1009F000B11DD2CF1F920F920FB60F9211242F93D9
:100A00003F934F935F936F937F938F939F93AF9396
:100A1000BF93EF93FF938091B900887F803609F4EC
:100A20004AC0F0F5883209F4A7C018F5803109F4FE
:100A30009BC0B8F4882309F4F9C0883009F494C045
:100A4000FF91EF91BF91AF919F918F917F916F91A6
:100A50005F914F913F912F910F900FBE0F901F907C
:100A60001895883109F488C0803251F780930902C3
:100A700014C0803409F49DC040F48033B9F3883346
:100A8000F9F68093090285ECB0C0803509F485C081
:100A9000883509F496C0883499F60E947804D0CF3E
:100AA000883909F48CC038F5883729F050F4883635
:100AB00011F0803729F683E080930B021092B90180
:100AC00057C0883809F47BC0803919F0803809F0A4
:100AD000B7CF8091B901803208F071C0E091B901BF
:100AE00081E08E0F8093B9018091BB00F0E0E75662
:100AF000FE4F80833DC0803B39F0E0F4803A09F43A
:100B000079C0883A09F09CCF84E080930B02109260
:100B1000960110929501E0919301F091940109954D
:100B20008091950181110FC081E080939501109211
:100B3000730109C0803C09F4A6CF883C09F4A3CF17
:100B4000883B09F07DCFE091960181E08E0F809384
:100B50009601F0E0ED58FE4F80818093BB009091AC
:100B600096018091950129C08091E6018093BB0098
:100B700085EC8093BC0064CF9091080280910702BD
:100B8000981758F5E091080281E08E0F80930802D3
:100B9000F0E0E951FE4F8081E9CFE091080281E069
:100BA0008E0F809308028091BB00F0E0E951FE4F68
:100BB000808390910802809107029817C8F285E817
:100BC000D8CFE091080281E08E0F809308028091D7
:100BD000BB00F0E0E951FE4F808380910A02811151
:100BE0005CCF81E08093E50184EA8093BC001092A1
:100BF0000B0226CF85EC8093BC0010920B028091F3
:100C0000B901803230F4E091B901F0E0E756FE4FCF
:100C100010826091B90170E0E0919701F091980124
:100C200089E991E009951092B9010ACF1092090261
:100C300034CFE5E3F2E01382128288EE93E0A0E085
:100C4000B0E084839583A683B78382E291E09183A9
:100C50008083E1E4F2E08FEF8183128213821482B9
:100C60001582168289E380830895CF93DF93CDB7F1
:100C7000DEB76E970FB6F894DEBF0FBECDBF1092F1
:100C8000C4011092C30110921202109234020E9409
:100C9000210188E293E0909394018093930189E28B
:100CA00093E0909398018093970188E48093B80033
:100CB0008FEF8AB92FEF89EF90E02150804090406C
:100CC000E1F700C0000082E00E94C40388E20E94B5
:100CD000C4038CE00E94C40386E00E94C40381E048
:100CE0000E94C403EFE3FFE13197F1F700C0000079
:100CF00080E391E00E94F903FFEF23EC89E0F150DB
:100D000020408040E1F700C000000E94ED038AE32C
:100D100091E00E94F9039FEFE3ECF9E09150E0408D
:100D2000F040E1F700C000000E94ED0385E491E08F
:100D30000E94F9032FEF83EC99E02150804090400E
:100D4000E1F700C000000E94ED0381E591E00E9400
:100D5000F903EFEFF3EC29E0E150F0402040E1F738
:100D600000C000000E94ED038FEF93EFE1E081509F
:100D70009040E040E1F700C000008091410291E026
:100D80009093110280933302109212021092340257
:100D900088EA90E00E94A90390E080E00E94A90305
:100DA00090E080E00E94A90381E00E94600181112F
:100DB00009C0FFEF26E181E1F15020408040E1F7DA
:100DC00000C000008091410291E090931102809355
:100DD0003302109212021092340288E090E00E94D6
:100DE000A90390E080E00E94A90381E00E946001D5
:100DF00081110DC09FEFE6E1F1E19150E040F0403C
:100E0000E1F700C000000E94B1038093420235E088
:100E1000932E6E012BE0C20ED11C4EE5E42E41E074
:100E2000F42E0E9426048F3F09F473C08091420281
:100E30008F3F09F46EC06091450270E090E080E061
:100E4000CB0177276627662777278F709927009130
:100E5000460210E0102F002730E020E0602B712BBD
:100E6000822B932B20914702622B0E945F082CE279
:100E700037E448E459E30E94F20820E030E048E417
:100E800052E40E94F207162F072FB82EA92E0E94B7
:100E900026048F3F09F444C0809142028F3F09F439
:100EA0003FC06091430270E090E080E0CB01772783
:100EB000662720914502622B40904402512C542C0D
:100EC0004424712C612C6429752986299729E4E032
:100ED0009695879577956795EA95D1F70E945F0873
:100EE0002DEB3AE347EC58E30E94F208762E672E8A
:100EF000582E492E20E030E048EC52E40E94ED08E4
:100F00001816A4F4712C612C88EC582E92E4492E0A
:100F10000DC010E000E0FFE7BF2EA3E4AA2EB7CF7C
:100F2000712C612C2FE7522E33E4432E8EE0E0E04B
:100F3000F1E0DE01509601900D928A95E1F71E8E48
:100F40008AE0EFE0F1E0DE01119601900D928A95C2
:100F5000E1F7F601292D11922A95E9F7AF92BF9298
:100F60000F931F93FF92EF92B12CBF92A12CAF92DF
:100F70000E948E094F925F926F927F92FF92EF9242
:100F800010E01F9300E00F930E948E09B501CE017F
:100F900040960E948309B801CE0101960E94830900
:100FA0000E94ED0383E691E00E94F90380EC0E9429
:100FB000C40389E691E00E94F9038FEF97EAE1E626
:100FC00081509040E040E1F700C000000FB6F89477
:100FD000DEBF0FBECDBF25CFEE0FFF1F0590F491F2
:100FE000E02D09945058BB27AA270E940A080C94A8
:100FF000B3080E94A50838F00E94AC0820F039F42C
:101000009F3F19F426F40C94A2080EF4E095E7FB38
:101010000C949C08E92F0E94C40858F3BA17620781
:1010200073078407950720F079F4A6F50C94E60879
:101030000EF4E0950B2EBA2FA02D0B01B9019001F3
:101040000C01CA01A0011124FF27591B99F0593F37
:1010500050F4503E68F11A16F040A22F232F342F7F
:101060004427585FF3CF469537952795A795F040CD
:101070005395C9F77EF41F16BA0B620B730B840BE2
:10108000BAF09150A1F0FF0FBB1F661F771F881F9A
:10109000C2F70EC0BA0F621F731F841F48F48795F2
:1010A00077956795B795F7959E3F08F0B0CF9395E4
:1010B000880F08F09927EE0F979587950895E89483
:1010C00009C097FB3EF490958095709561957F4F90
:1010D0008F4F9F4F9923A9F0F92F96E9BB2793953E
:1010E000F695879577956795B795F111F8CFFAF44E
:1010F000BB0F11F460FF1BC06F5F7F4F8F4F9F4F7F
:1011000016C0882311F096E911C0772321F09EE8DC
:10111000872F762F05C0662371F096E8862F70E042
:1011200060E02AF09A95660F771F881FDAF7880F1C
:101130009695879597F9089597F99F6780E870E0ED
:1011400060E008959FEF80EC089500240A9416163D
:10115000170618060906089500240A9412161306A5
:10116000140605060895092E0394000C11F4882333
:1011700052F0BB0F40F4BF2B11F460FF04C06F5F4F
:101180007F4F8F4F9F4F089557FD9058440F551F25
:1011900059F05F3F71F04795880F97FB991F61F0F9
:1011A0009F3F79F087950895121613061406551F70
:1011B000F2CF4695F1DF08C0161617061806991FDC
:1011C000F1CF86957105610508940895E894BB27D1
:1011D00066277727CB0197F908950E945F0908F4E5
:1011E0008FEF08950E9405090C94B3080E94A5088A
:1011F00038F00E94AC0820F0952311F00C949C0864
:101200000C94A20811240C94E7080E94C40870F3FF
:10121000959FC1F3950F50E0551F629FF001729F9B
:10122000BB27F00DB11D639FAA27F00DB11DAA1FAA
:10123000649F6627B00DA11D661F829F2227B00DF7
:10124000A11D621F739FB00DA11D621F839FA00D82
:10125000611D221F749F3327A00D611D231F849FD2
:10126000600D211D822F762F6A2F11249F57504029
:101270009AF0F1F088234AF0EE0FFF1FBB1F661FA4
:10128000771F881F91505040A9F79E3F510580F06D
:101290000C949C080C94E7085F3FE4F3983ED4F369
:1012A000869577956795B795F795E7959F5FC1F711
:1012B000FE2B880F911D9695879597F90895990FA4
:1012C0000008550FAA0BE0E8FEEF16161706E80710
:1012D000F907C0F012161306E407F50798F0621B31
:1012E000730B840B950B39F40A2661F0232B242B06
:1012F000252B21F408950A2609F4A140A6958FEF25
:10130000811D811D0895FB01DC010D900020E9F78E
:10131000119701900D920020E1F70895AEE0B0E042
:10132000E4E9F9E00C943D0C0D891E8986E08C837C
:101330001A8309838FEF9FE79E838D83AE01475EFB
:101340005F4F6F89788DCE0101960E94B1092F8180
:101350003885020F131FF80110822E96E4E00C94DA
:10136000590CABE0B0E0E7EBF9E00C942F0C7C01FA
:101370003B018A01FC0117821682838181FFC8C16B
:10138000CE0101965C01F7019381F30193FD8591F4
:1013900093FF81913F01882309F453C1853239F4C9
:1013A00093FD859193FF81913F01853229F4B70127
:1013B00090E00E94A10BE7CF912C212C312CFFE172
:1013C000F31538F08B3211F190F4803209F1833249
:1013D00029F137FC3CC020ED280F2A3050F536FEAD
:1013E00020C08AE0989E200D1124922E06C08D32D6
:1013F00091F0803371F7689430F8F30193FD859193
:1014000093FF81913F018111DACF21C0689431F8B7
:10141000689432F8F2CF689433F8EFCF689434F8D8
:10142000ECCFEAE02E9E200D1124222E689435F890
:10143000E4CF8E3229F436FC04C1689436F8DDCF4F
:101440008C3619F4689437F8D8CF8836B1F2982FD3
:101450009F7D95549330E0F08336A1F18337C1F13D
:10146000833509F063C02801F2E04F0E511CF801EA
:10147000C080D180692D70E036FC02C06FEF7FEF35
:10148000C6010E948B0B4C01689437F882010AC098
:101490000C5F1F4FFFE3F98388248394912C65012F
:1014A000E89437F833FE2DC0522C8114910471F565
:1014B000552009F468CFB70180E290E00E94A10BAB
:1014C0005A94F6CFF801808189830E5F1F4FE4CFD5
:1014D0002801F2E04F0E511CF801C080D180692D27
:1014E00070E036FC02C06FEF7FEFC6010E94960BE2
:1014F0004C018201D5CFB70180E290E00E94A10BA0
:101500002A942814190409F0B0F7CECFF60137FC5D
:10151000859137FE81916F01B70190E00E94A10B88
:1015200051105A94F1E08F1A9108BFCF843619F008
:10153000893609F077C0F80137FE6BC06081718190
:10154000828193810C5F1F4FF32DFF763F2E97FF13
:1015500009C090958095709561957F4F8F4F9F4FF3
:10156000689437F82AE030E0A5010E94D10BC82E1C
:10157000CA188C2C432C36FE0CC0E89440F8C914D1
:1015800040F434FE05C032FC03C0F32DFE7E4F2E26
:10159000892C44FE95C0FE01EC0DF11D8081803345
:1015A00009F087C0242D297E422E842D8870582E64
:1015B00043FC95C040FE8FC09C2C821418F42C0C68
:1015C000922C981844FE91C0B70180E390E00E94ED
:1015D000A10B42FE09C088E790E041FE02C088E509
:1015E00090E0B7010E94A10BC91408F48AC0CA9404
:1015F000D12C9FEFC91AD90ACA0CDB1CF6018291C3
:101600006F01B70190E00E94A10BAC14BD04B1F7CB
:101610004FCF60817181072E000C880B990B0E5FF4
:101620001F4F92CFD32CE894D4F82AE030E08537CE
:1016300039F1232D297FD22E8F3601F148F48835D8
:10164000A9F0F701868197812B96E2E10C944B0C6F
:10165000803749F08837A9F7D4FE02C06894D2F8E1
:1016600020E130E00DC06894D4F8F6CF34FE03C01A
:10167000822F8660D82E20E132E002C028E030E0E0
:10168000F801D7FE0FC060817181828193810C5F68
:101690001F4FA5010E94D10BC82ECA183D2CE894FB
:1016A00037F867CF6081718190E080E00E5F1F4F57
:1016B000F0CF42FC02C0839478CF8394839475CF9B
:1016C000842D867809F471CFF6CFB70180E290E0DF
:1016D0000E94A10B83948214C0F3512C73CF522C1F
:1016E0005818821408F46ECFF8CF842D867809F448
:1016F0007BCF8BE241FE80E247FC8DE2B70190E0B8
:1017000071CFB70180E390E00E94A10B9A946CCF57
:101710008FEF9FEF99CFFC01059061507040011051
:10172000D8F7809590958E0F9F1F0895FC0161500A
:10173000704001900110D8F7809590958E0F9F1FF3
:1017400008950F931F93CF93DF93182F092FEB0169
:101750008B8181FD09C01FEF0FEF812F902FDF914B
:10176000CF911F910F91089582FF14C02E813F8168
:101770008C819D81281739073CF4E881F981CF01DC
:1017800001969983888310838E819F8101969F8320
:101790008E83E3CFE885F985812F0995892BA1F305
:1017A000DACFFA01AA27283051F1203181F1E894EB
:1017B0006F936E7F6E5F7F4F8F4F9F4FAF4FB1E044
:1017C0003ED0B4E03CD0670F781F891F9A1FA11D3F
:1017D000680F791F8A1F911DA11D6A0F711D811D40
:1017E000911DA11D20D009F468943F912AE0269F05
:1017F00011243019305D3193DEF6CF010895462F64
:101800004770405D4193B3E00FD0C9F7F6CF462F44
:101810004F70405D4A3318F0495D31FD40524193AD
:1018200002D0A9F7EACFB4E0A6959795879577956A
:101830006795BA95C9F700976105710508959B01F1
:10184000AC010A2E06945795479537952795BA957A
:10185000C9F7620F731F841F951FA01D08952F9253
:101860003F924F925F926F927F928F929F92AF9230
:10187000BF92CF92DF92EF92FF920F931F93CF937D
:10188000DF93CDB7DEB7CA1BDB0B0FB6F894DEBF14
:101890000FBECDBF09942A88398848885F846E843A
:1018A0007D848C849B84AA84B984C884DF80EE8084
:1018B000FD800C811B81AA81B981CE0FD11D0FB68D
:1018C000F894DEBF0FBECDBFED010895F894FFCFB1
:1018D00074656D70657261747572613A200000758F
:1018E0006D69646164653A2000000000000000003A
:1018F00000007A034D03AE032A0382003A032B0350
:10190000696E696369616E646F00696E69636961BC
:101910006E646F2E00696E696369616E646F2E2E4E
:1019200000696E696369616E646F2E2E2E00252E2C
:101930003266006368696361006C6570726F736121
:021940000000A5
:00000001FF
